:020000042000DA
:1000000000980020A1040020A9040020C1040020C1
:1000100000000000000000000000000000000000E0
:10002000000000000000000000000000D9040020D3
:100030000000000000000000F1040020F304002094
:1000400047280020412900200D3103002F290020DE
:10005000AF2800208D310300592900206729002096
:100060005F210020F5040020A7290020AD31030006
:1000700057810200F5040020F5040020C12500206E
:10008000F5040020F5040020F5040020AD20002038
:10009000B1200020B5200020B9200020BD20002084
:020000042000DA
:10016000320000000D050020271B0020E9060020BA
:10017000000000000000000063800200BD8002005B
:10018000BB0C0020FB8002001981020035810200B7
:100190005D810200E1260020B10D0020A70C0020A7
:1001A000B10C002000000000000000003F00000033
:1001B000F48B002000040000740B080048010000CC
:1001C0006807080000040000C80C080020050000B3
:1001D000000000002000000048000000580000005F
:1001E0006800000004010000160100002801000062
:1001F0002E010000202A00008E2E000001000000C9
:1002000088130000B11B002059370020EB3B002071
:10021000B314002019280300A57402002926002029
:1002200003000000D5200200E906002001000000C4
:10023000D74902000F4902004D2C0020B33C00209A
:100240000F3E0020F53E002007820200718202006E
:10025000E0580020AD830200938402004185020033
:1002600015860200378602005F860200758602004E
:10027000F9870200258902005D8A0200D38C020002
:10028000098D02000F900200438D0200278E0200AC
:10029000F98E0200478F0200E50B0020D58F020087
:1002A000533A0020775102002F5202001000000044
:1002B00020030000803E000000000000000000005D
:020000042000DA
:1002C000504600030003983A6400F401B80B000C98
:1002D000B80B120030003000CD009A01120024004B
:1002E00030006400B0001800280012001200D0078F
:1002F0000000FFFF00000000000000000000000000
:100300001F00000244413134353833000000000042
:1003100000000000000000000000000000000000DD
:0403200000000000D9
:020000042000DA
:10034000FFFF010000C201000000000000000000EB
:100350000000F4010100010A0B0709030318021849
:100360000418F5FE0000000000000000000000007E
:10037000000000000000000000000AFF00D2444C12
:10038000472D424C45000000000000000000000026
:100390000000000000000000000044413134353806
:1003A000300000000000000000000000000000001D
:1003B000000000000000000000000000000000003D
:1003C000000000000000000000000000000000002D
:1003D0000000000000000000010000CAEA80D00711
:0403E000064064323D
:020000042000DA
:100440000348854604F03EFF00480047C7200200ED
:10045000009800200E4906200880FF200D49013039
:1004600008600D4988683E2290432E308860002243
:10047000052000070280018A0F231B021943018215
:1004800001210648C90404C1401EFCD562B670476C
:100490000034005080E100E000330050FF0B00000A
:1004A000154880471548004704207146084203D08C
:1004B000EFF3098012490847EFF308801049084715
:1004C00004207146084203D0EFF309800D49084724
:1004D000EFF308800B49084704207146084203D017
:1004E000EFF3098008490847EFF3088006490847F9
:1004F000FEE7FEE7FEE7000055040020410400206F
:10050000ED060020C90800202310002008B500F0E7
:100510005CFC0025052424070FE01420009500F062
:100520009DFA0421684604F0DFFE002801D000F0A7
:1005300067FB04F02BFC00280BD02089000608D5AF
:1005400001208007006B000403D404F0D3FEC00731
:100550000FD004F068FC0028EFD172B602F082FAE6
:1005600004280FD0022814D0032812D001281BD051
:100570001BE0042004F0C4FE064604F0C7FE002E73
:10058000D7D0CAE750480078012801D0032000E006
:10059000022000F00CF830BF04F059FC4B48016910
:1005A00004229143016100E030BF62B6C5E7F8B5AF
:1005B0006946052508702D07298A042211432982DE
:1005C00004464348434EC0690127012811D9032C32
:1005D00018D104F0A1FE002814D004F0A3FE0028D6
:1005E00010D0032004F0A4FE00280BD002203070AD
:1005F00009E0032C06D1032004F09AFE002801D064
:10060000377000E0022468460470204600F026F8A7
:10061000314800260670204604F00CFC022C01D064
:10062000032C1AD12D484188FF2201329143418089
:1006300069882B4A1180418839434180009600988F
:10064000401C00901428FADB688980088000401C58
:10065000688168894006FCD56E80F8BD10B5022817
:1006600001D0032828D119490B69042213430B61D7
:10067000052109074B8A2024A3434B820B8A0224BD
:1006800023430B8210230228488A16D01043488245
:100690007F22088892018024204308800020401C8B
:1006A000C0B20A28FBD3488A184348820D48521E1C
:1006B00042610888A043088010BD10434882488AE0
:1006C0009843488210BD00005402080000ED00E08D
:1006D000E0010020C406080032120800200000508B
:1006E000341208000080004070470000052109070F
:1006F0000A8A04231A430A820A8A02231A430A82B4
:100700000A8940231A430A811B4B01221A601B4BA2
:1007100008221A804A8A80231A434A82184A0368A8
:1007200013614368536183689361C368D36103694C
:1007300013624369536283699362C369D36210632E
:100740001048836A5363C36A9363036BD363C36BB9
:100750000B4A40321360436B5360806B9060888A11
:10076000800608D500BE488A012280088000D20396
:10077000104348827047FEE780E200E000330050FB
:100780004018080000ED00E04A480178002902D036
:100790008021417070474849002008704749C8705F
:1007A000704744480178002902D081214170704788
:1007B0004149012008704149C87070473D4801789F
:1007C000002902D08221417070473B490220087005
:1007D0003A490120C8707047002804D0012803D08E
:1007E000022802D1EAE7CFE7DBE770473249002071
:1007F0000978002904D0012903D0022900D1022060
:100800007047012070472B488178002904D0491E89
:100810000906090E817017D142780021002A04D000
:100820009207920F0270417004E00278002A01D012
:10083000521E02701206120E017005D0012A02D05B
:10084000022A01D1BAE7ACE7704700B5194A90789F
:10085000401C90701078002805D1FFF7C7FF431C9B
:10086000FFF792FF137000BD12490120C870704756
:1008700010490020C87070470E48C07870470020AB
:10088000EFF31081012282F31088052212071289EA
:10089000120605D40A48028901231A430281184628
:1008A000002900D0012181F31088704705480078A5
:1008B00070470000F511080054020800C606080041
:1008C000003300503012080005221207518A80239D
:1008D00019435182124903680B6043684B60836877
:1008E0008B60C368CB6003690B6143694B618369AB
:1008F0008B61C369CB6108620A48836A4B62C36A31
:100900008B62036BCB62C36B0B63436B4B63806B7C
:100910008863908A800601D500BE7047FEE700001C
:100920000018080000ED00E010B5444800214170B7
:1009300001700421817003F09FFF10BD38B540485D
:10094000007803F09AFF00240322022312020421FC
:100950002046009401F07DFA002201230521104673
:10096000009401F076FA38BD38B50025354C009575
:100970000322617820780223120201F06AFA0095BE
:10098000E178A0780123002201F063FA38BD2D4BF5
:10099000187059709870DA70704710B505242407E4
:1009A000208A022188432082A08A0007FCD526489D
:1009B0004188FF22013211434180A08880210843F1
:1009C000A0800321092004F0B9FC00F036FBFFF7FA
:1009D000B5FF608A20210843608210BD1B48416832
:1009E00006229143091D4160416801221143416083
:1009F000416838221143416041684022914341607F
:100A0000416803225202114341604168821511433B
:100A1000416041680722D2021143416041680214DB
:100A20009143416001150A4801600A4A1068FF239A
:100A30001B0498431060084801607047605E002006
:100A40004C5E0020045E00202000005000020040A8
:100A500000E100E008E400E080E200E07CB5FE4C4C
:100A6000217800292DD0FD490A885207FCD4CA8874
:100A70000092898801911104019A89180091F8491E
:100A80004843009904F060FC00900020207000981A
:100A9000A060009804F06FFB05462946F14804F079
:100AA0009DFA0A2104F0D8FA04F085FBE06028469C
:100AB00004F095FBEC4AED4B04F04CFC04F0A3FB76
:100AC00020617CBDE54948800888032210430880E6
:100AD0000888042210430880DF490120087070470D
:100AE000DD49AA204860704770B5052109070889CB
:100AF000302290430881088980231843088108899F
:100B000080088000401C0881088908221043088161
:100B1000D74804881C4304804C8A94434C820D8936
:100B2000402425430D810D8A0426B5430D828D8A0C
:100B3000AD07FCD5C84EAA2575608588F026B5435B
:100B4000B0358580858803263602B543FF350135EB
:100B5000858085882D092D01858085880126B6022E
:100B60003543858085887600354385808588760085
:100B7000354385804D8A95434D8202885208520044
:100B8000028002889A4302800A89A2430A8140892E
:100B9000800503D5B6490520603188800120800793
:100BA0000168821591430160B24801683F225202F8
:100BB00091434214891801600168020311430160E6
:100BC00070BD0321AC4809028181082242800021C6
:100BD000491C9629FCD38280704710B5A74804F0C1
:100BE000BFFB10BD70B5A24C6088C006050F04F0B5
:100BF000BDFB61881E2291436A001143618070BD74
:100C000070B59F490120C863C86B0028FCD1012042
:100C10008007C1699B4800220368994200D20260A4
:100C20008D4C01266378984D002B04D062700160D2
:100C300004F0A2FB11E0026819238A1ADB019A4230
:100C400014D3016004F098FB2988884201D9411A25
:100C500000E0091A89B2182908D32880012004F07D
:100C600091FB04F095FB002800D1667070BD08B5BB
:100C7000794989684843854904F066FB009008BDBE
:100C800008B50021009174490122D203C96890423D
:100C900005D304F0ABFD8905800A084301E0484311
:100CA000800A009008BD08B5FFF7E1FF009008BD7D
:100CB00008B5FFF7E5FF009008BD08B574490120AD
:100CC0004A695206D20F13D04A699206D20F0FD04A
:100CD00000220A610092FF225F32009B5B1C00939E
:100CE0009342FAD34969C907C90F02D004F056FBF1
:100CF000002008BD40183721C00009014018704786
:100D000010B5644A0020117800290DD05C490120FB
:100D1000C863C86B0028FCD101208007C0695E4908
:100D20000968884201D2012010BD00201070FFF731
:100D30005DFD022803D0FFF759FD01280BD157496B
:100D40000820088005200007818A8906FCD4418A92
:100D5000802291434182002010BD0020704708B5D9
:100D600043494A8801231A434A8000210091491CC3
:100D700000911429FBDB052109074A89920892009A
:100D8000521C4A814A895206FCD54B8904221343DE
:100D90004B814880488990434881888A0006FCD569
:100DA000488980088000488148890006FCD508BD34
:100DB00010B53B4900200860FFF70FFF01208007B6
:100DC000016B49004908016310BD10B5314901208C
:100DD000087032490820088004F0E6FA01F018F89B
:100DE000FF2401340D202146800104F0E3FA01F0D4
:100DF00050FCFFF7D2FD012004F0E2FA00F0F6FD0E
:100E0000FFF772FE042000F06EF8072000F06BF888
:100E10000A2000F068F8062000F065F80B2000F0CA
:100E200062F8012000F05FF8022000F05CF800207A
:100E300000F059F81B48006804F0C8FA00F09DF86B
:100E400000F0CFF800F093FDA00501682143016098
:100E50001420FFF737FE27E0FC11080000160050B1
:100E60000024F400002474497B14AE47E17A443F27
:100E7000200000500002004020300050E20400003A
:100E8000C00000407C0408007804080040420F00C5
:100E900000100050F4110800085E002000330050DC
:100EA0008C030800049000201420FFF7D7FDFFF703
:100EB0006BFC01F0E2FEFFF77BFF00200521090734
:100EC000C8820C494888E0229043A0304880012025
:100ED00004F082FA10BD084910B5884200D000BE67
:100EE00004F080FA10BDC106C90E012088400349F4
:100EF00008607047200000501111111180E200E0DD
:100F0000FFB581B01F460E464D780C78002004F0E6
:100F10006FFA042824D000281DD121E05D48816AA1
:100F20002E206043091888880207120F130004F06E
:100F300065FA070505050F050F050F008204920EDF
:100F4000062A05D27278012A12D00722104388801F
:100F5000641C6407640F28466D1EEDB20028DDD1C5
:100F60003B463146039A019804F04EFA05B0F0BDB5
:100F7000204604F04FFA0020F8E770B546480378A1
:100F8000021D0021454D07E0CC00165D002E01D169
:100F90002418A560491CC9B29942F5D370BD70B53B
:100FA00005460C46103C3F2004F022FA00280FD0E2
:100FB0003B488068322806D93A498D4201D03C2806
:100FC00001D9002070BD2146354804F029FA06E019
:100FD000204604F02BFA01213F2004F02DFA0120D5
:100FE00070BD10B52C490B780A1D002005E0C40027
:100FF000145D3F2C04D0401CC0B29842F7D310BD02
:10100000264AC00010324018826010BD028908894B
:101010002549101A80B2884201D90120704700206A
:10102000704781692039897F082905D21B4A8900C8
:101030002032515881617047FEE71D481B4901610C
:101040001C4941611C4981611C49C1611C49016203
:101050001C4941621C4981621C49C1621C490163EF
:101060001C4941631C4981631C49C16310481C49E8
:10107000403081601B49C16001201B49C0060860E7
:101080001A49CA691202120ACA61174980390860EE
:10109000704700001803080004060800305A0020BA
:1010A000800408001034000030750000942703000D
:1010B0000084004062B600DF28A30200704701DF11
:1010C0001CCA0200F8BD02DF40CB0200F5E703DFD7
:1010D00084D4020004DF89B0941B030005DF00B54F
:1010E000EC0C030070BD07DF80E100E000ED00E0E4
:1010F00070B516460D46104604F07AF9002869D0FE
:10110000340A304604F074F9012812D0A87A1E2857
:1011100011D029460A310E2845D019DC801E030063
:1011200004F06CF90B255829582D58315839583D81
:101130005800022070BD3146274804F083F9002191
:10114000204604F085F90221304604F075F941E0AB
:1011500018283CD006DC102819D012282BD01628CD
:1011600038D130E0522822D0D22833D127E020468F
:1011700004F074F92EE0204604F076F92AE02046C7
:1011800004F078F926E0204604F07AF922E02046BF
:1011900004F07CF91EE0204604F07EF91AE02046B7
:1011A00004F080F916E0204604F082F912E02046AF
:1011B00004F084F90EE0204604F086F90AE02046A7
:1011C00004F088F906E0204604F08AF902E020469F
:1011D00004F08CF9002070BD01280000F8B50D4620
:1011E000064681002B48EA884458521C20686B89C7
:1011F000018F294F51430091014640314A89C989E5
:10120000511A8AB2991A89B2B94214D29A4212D0AA
:10121000294604F071F92D892049009804F094F8CA
:101220002818801C4034E0823002401C80B2042127
:1012300004F002F9F8BD2821304604F063F9F8BD46
:10124000F8B50546870013480C46C059C9880068A0
:10125000114E024640325389D2899A1A92B28B1AA1
:101260009BB2B34211D20B4E8A420ED004F050F919
:10127000F05905225F30611C04F050F92802401C2F
:1012800080B2052104F0D8F8F8BD2821284604F0E2
:1012900039F9F8BD4C030800FF7F0000102700005B
:1012A00070B50446007800250D2801D00A2200E020
:1012B00002225A494B7A002B06D00D2804D0637CB9
:1012C000032B01D0432551E0097A8A4339D10D28F7
:1012D00009D00E2802D00F2803D134E0607C032807
:1012E00004D3402542E0607C0328FAD8A07C04287F
:1012F000F7D20A2908D0607C012822D0022820D009
:101300006078032809D811E004F00EF9012806D10D
:101310006078032803D0002801D0492526E004F096
:1013200003F9002802D160780228F6D83020035D46
:1013300022462046E17C3132143000F019F805468F
:1013400014E0422512E004F0EFF8012807D160789C
:10135000052804D1A01D04F0EDF80028DDD004F02C
:10136000E3F8002802D160780228D6D8284670BD5C
:10137000FFB5002086B001216A4611700446059130
:101380000021002C06D0089D099A1F239A4234D9C7
:10139000402032E01C23069D079AF7E76B185E7821
:1013A000330004F02BF81D26101010101010101030
:1013B000102626262626262626262626262610100F
:1013C000101010102600059B03E06F46FF5CB7422B
:1013D00004D05B1E5BB2002BF7DA03E0002B01DBCD
:1013E0004A2006E0059B6F46FE54059B5B1CDBB262
:1013F00005936B5C491C5918C9B2914201D200286F
:10140000CCD0914202D04A200AB0F0BD641CE4B2B4
:10141000022CF9D20028B3D0F6E7000098050800A6
:1014200070B5EFF31085012080F31088264804F092
:1014300087F80446002D1DD0012080F31088002C71
:1014400023D020462038C08B204988421DD1618995
:10145000208904F07BF805000ED021461031A389C5
:1014600062892089A847002806D001280DD00228CB
:101470000BD105E00020E0E7204604F06DF804E021
:10148000114821460C3003F0CBFFEFF3108401200C
:1014900080F310880C480068002802D1012004F075
:1014A00061F8002C03D0012080F3108870BD00206B
:1014B000FAE710B5BC21064804F05AF805490120A6
:1014C00004F05CF810BD0000A80508003883000097
:1014D000040608002114002000B502790021130041
:1014E00003F08CFF0C34070735352035353535359D
:1014F00027344279042A27D8C279530707D05207E4
:10150000520F012A03D0042A01D0052A1CD1827966
:10151000002A01D0012A17D1007AC01F0A2816D349
:10152000062114E04279521E0A2A10D30822427181
:101530000DE0407942070AD04007400F012806D04D
:10154000042804D0052802D00A2100E0072108461B
:1015500000BDF3B581B001980C460102CA1D0223FB
:1015600032480E3104F010F8047001990546022744
:101570002F488E00002C06D0042C16D0062C10D03C
:10158000072C3FD108E0815905224968897C114028
:1015900069708059C77335E0084603F0FBFF687037
:1015A00030E080590F21C1732CE004468059406817
:1015B000417C012902D1007E01280FD0019803F05F
:1015C000EFFF01210028A0590BD04268D07D0028F0
:1015D0001CD001281AD004280DD00FE0002068701C
:1015E0000DE04068C27D022A01D0042A06D1007CA9
:1015F00002280BD102E0107C022807D06F70A1599D
:101600000320C873284603F0D1FFFEBD6970F6E7DA
:1016100001460A780120042A01D900207047497840
:101620000029FBD00129F8D170470000021C0000FE
:1016300028050800FFB589B00D46002069460590D1
:1016400008720B98000A009003F0AAFF07460B9857
:1016500003F0CEFE00287DD00B982978000A840084
:10166000784E012963D0042904D0062948D00729DF
:1016700068D125E03059C17B032901D0042961D10B
:10168000697800291AD040681022A91C03F046FF8F
:10169000002F06D03159C87B032807D0042808D072
:1016A00050E03059C07B032803D04BE00B20C873B7
:1016B00048E00521009803F07FFF43E00120B6E0F9
:1016C0003059C07B0E283DD1009803F063FF002104
:1016D00003E02A18401C9170C0B21028F9D3688A20
:1016E00069460883294606A808221431023003F00F
:1016F00015FF06ABAA1C3946009803F063FF21E0F2
:101700003059C07B0F281DD1AA1C0A21009803F074
:101710005FFF002F04D03946009803F05FFF11E00F
:1017200000231A463946009803F05EFF0AE0012FB5
:1017300008D10B9803F05CFE01281CD0002801D0D2
:10174000022005906846007A002811D002AA0521DF
:10175000009800E00CE003F03BFF6846027A60204E
:1017600002436846027201233946009803F03CFFA9
:1017700005980DB0F0BD3059C07B0228E2D16878E1
:10178000002851D002210B9803F056FE3059072251
:101790004068A91C173003F0C1FEE878002804D186
:1017A00030594068407C01283AD0009803F022FF6D
:1017B000002837D0297A009803F022FF002833D080
:1017C000009803F023FF0121009803F025FF002873
:1017D0002CD030594068417E00292BD0042929D0D3
:1017E000C17E027D1140C17630594068017F427D43
:1017F000114001776846007A0028A7D130590221AC
:1018000042680098173203F0E3FE305941684031D6
:10181000897B002913D004210098FFF79AFE91E7F5
:10182000022004E0062002E0082000E003206946D0
:1018300008728BE70021C17630594068D9E70B2147
:10184000C1737FE72805080010B50C4603F0EAFED7
:1018500021888A004F4989580968002902D04E4BD7
:10186000C968995010BDF8B50E461046150A03F028
:10187000BFFDAC00474F002817D0142815D01528FD
:1018800009D038596030C07BC00606D53D212846B6
:1018900003F038FE09E0022008E003F0C9FE012849
:1018A00003D131462846FFF799FC002039590968D1
:1018B000002902D0384AC9681151F8BDFFB50F465A
:1018C0001546110A334A8800125881B012681E4624
:1018D000002A01D0D46803E02F4A00231458135083
:1018E000002C18D0201F42882C4B9A4213D100881C
:1018F000602810D12046403002898A420BD180886E
:10190000002808D0A068002802D0204603F096FEE8
:10191000204603F099FE33462A463946019803F0E3
:1019200099FE05B0F0BD70B510460D46140A03F0DF
:101930005FFD002819D0142817D015280BD01549A1
:10194000A00008586030C07BC00606D53D21204667
:1019500003F0D8FD09E0022070BD03F069FE012804
:1019600003D129462046FFF76BFC002070BD70B5FF
:101970000B480378021D00210A4D07E0CC00165DDC
:10198000012E01D12418A560491CC9B29942F5D392
:1019900070BD00004C0308001012080038830000DE
:1019A00004060800885C00200F4A518807235B0268
:1019B0009943400201435180704705200007018888
:1019C00030221143018001880322114301807047B6
:1019D0000520000701883022914301800188890891
:1019E00089000180704700008000005030B59249A6
:1019F0009248CA05148880231C431480904C658942
:101A00002D0701D4491EFAD28E4C012121608E4C43
:101A1000018821808D494088088010889843108073
:101A200030BD0020704770477047704700207047F6
:101A300001218907086B072210430863704770472C
:101A400030B584498248086083494C200880824C24
:101A5000824B203C238283498148488083488249C5
:101A600001808149193141802221418181218900F0
:101A700001827F4941827F4901837D491131418340
:101A80007A4A7D492032918041227C4912018A8024
:101A90007B4ACA807A4D1035CD810A824A82921CD7
:101AA0008A826A1FCA82FF2246320A83754A4A83A3
:101AB000754A592111807449744D20310D80432598
:101AC0004D80734D5582D5228A80FF22D3320A8100
:101AD000704A4A81704A8A81714A704911805E4910
:101AE000704A60394A80CA8810252A43CA80674AEA
:101AF0000A3A0A81584D6C4A403D6A806382082246
:101B00004A815249604A0988403A11824E49674ADF
:101B10000988118066490978002901D030210183A4
:101B200030BD4008704700B58BB0624A4262624ADD
:101B30008262624A4261624AC262624A0260624AE8
:101B40000262624A4260624AC261424A40480021DF
:101B5000106040484038026B03129A430263426BA4
:101B60001F231B049A4303231B04D21842635948C2
:101B70000268C3129A430260026803139A43026028
:101B800068464154491CC9B22829FAD30146282283
:101B9000514803F0C3FCFFF753FF03F0EDFB4F493F
:101BA0000880002003F0EEFB03F0F2FB0BB000BD59
:101BB00010B5284A0F2126480902106025484038F0
:101BC000426B1F231B049A4303231B04D218426356
:101BD00000060268D208D2000260052000070289D0
:101BE00092089200521C0281028908231A43028142
:101BF000028A0A430282FFF723FF3948006B00780C
:101C0000002804D03748008813496039C880012073
:101C100003F0E2FB10BD26480078704724490120FC
:101C2000087012493020088370472149002008704D
:101C30000E49104808837047A0860100087F040001
:101C40002000005000800040560208004A030800AF
:101C50004C05540780000040602C00507F7F00003E
:101C6000AC290000002200500909000000240050A7
:101C70002204000030D00000EE11000000250050CA
:101C80002E02000044200000402800500D95000066
:101C900002420000E4DC00001092000053780000D3
:101CA000002A00508B1000009DD500000026005037
:101CB00028120800231A0020271A00202D1A0020BD
:101CC000311A0020291A00203F1A00202B1A002068
:101CD000231B0020000200402000080078040800B8
:101CE0002002002052040800084301218903034612
:101CF0000B4343490B80434B1843088009200243A0
:101D00004A8070473E490A880F239B0100079A4387
:101D1000800D02430A8070473949002008807047CF
:101D200037483949028802231A430280491E02D3E8
:101D300002889207FAD400210181408970470AE0A5
:101D400000BF00BF00BF00BF00BF00BF00BF00BF9B
:101D500000BF00BF00BF401EF2D2704770B5022224
:101D6000510204464E003046FFF7BEFF1420FFF735
:101D7000E6FF002C01D0092000E00720FFF7C2FF9A
:101D8000FFF7CEFF05460120FFF7D9FF0222002111
:101D90003046FFF7A9FF002C01D0092000E0072002
:101DA000FFF7B0FFFFF7BCFF4019154A0021118073
:101DB00070BDF0B5124C154820801420FFF7BFFF0E
:101DC00001256D02A580E5802088E9000843208078
:101DD00020888E10B0432080FFF7A2FF074620889E
:101DE00030432080FFF79CFF024678007142401884
:101DF000281A52005118691AA080E180F0BD000035
:101E00000015005001400000A086010001480000BC
:101E1000704710B5032800D10420B14C40010019CF
:101E2000490008181A43C28010BD032800D10420BD
:101E3000AB4A4001801801228A4082807047032803
:101E400000D10420A64A4001801801228A40428025
:101E5000704770B506460498144600280D46304673
:101E600002D0FFF7ECFF01E0FFF7DFFF2246294633
:101E70003046FFF7CEFF70BD10B5002807D0431ED7
:101E8000974C5B0070341B19012802D002E000233C
:101E9000F6E70831188801248C40A0438A400243A9
:101EA0001A8010BD032800D104208D4A40018018FB
:101EB000008801228A40104000D001207047FFB501
:101EC00083B088A00068009010461338FF260136C2
:101ED0008640019014460D9FB0B200F0F1F8002F3B
:101EE00001D0012100E000217F4D8140A889B0434D
:101EF0000143A9813F2000F0E3F88740A8898009C9
:101F000080010743AF81B0B200F0DAF80C9981404C
:101F1000288AB0430143298201260199304688402E
:101F2000074680B200F0CCF806998140288AB84371
:101F3000014329823F2000F0C3F803996A46525CAE
:101F40000499511881406848620040381018428B4B
:101F50009209920111434183A007C20EFF219140D3
:101F600080209040002C0BDA2207120F083A9308C9
:101F70005E4A9B009A18D3698B430343D36107E001
:101F8000A3085B4A9B009B181A688A4302431A60A5
:101F9000E006C00E86405748066007B0F0BD5249C3
:101FA0000A8A1338012181400A40C80701D0002065
:101FB00038E0880701D5012034E0480701D5022028
:101FC00030E0080701D503202CE0C80601D5042025
:101FD00028E0880601D5052024E0480601D5062022
:101FE00020E0080601D507201CE0C80501D508201F
:101FF00018E0880501D5092014E0480501D50A201C
:1020000010E0080501D50B200CE0C80401D50C2018
:1020100008E0880401D50D2004E0480401D50E2015
:1020200000E00F20C240D0B2704770B513380124D1
:1020300084400D46A0B200F043F885402A48018A4A
:10204000A1430D43058270BD70B5012413382146AC
:1020500081400D4688B200F033F884402248C1899F
:10206000A9430C43C48170BD0246133A042A04D824
:10207000214A8000801880384163704710B50446BB
:10208000133804280AD82046FFF7DEFF1A49A000BB
:1020900040188038406B002801D0804710BDE10611
:1020A000C90E012088401549086010BD1320E5E7DE
:1020B0001420E3E71520E1E71620DFE71720DDE72E
:1020C00000280AD0411E4840C003010C002001E056
:1020D0004908401C0029FBD100E0102080B2704765
:1020E0000030005001090F190014005000ED00E00D
:1020F00000E400E000E100E02090002080E200E049
:1021000030B5224B1C680825C907AC43090F0C43A6
:102110001C6019680424D207A143520F11431960AF
:1021200019680222C0079143800F014319601848C3
:102130000168C022090A09021143016030BD154B34
:1021400058809980DA807047FF2013490130086079
:102150007047FF20104901308031086070470F48F8
:102160000068002800D00047704770B50546144647
:102170000E46012003F090FB284603F099FB304601
:1021800003F0A2FB0348C48170BD0000003400507E
:1021900008E400E00034005000E100E00C5E0020A4
:1021A00010B54F4841780078FFF73FFE10BD10B5DD
:1021B0004B4841780078FFF742FE10BDF8B50E4657
:1021C000154647490278079F0A7040781C464870B8
:1021D000FFF7EDFF0520000781880122D20211439D
:1021E0008180404801884908490001800188FF2218
:1021F00081329143F20111430180018840229143D1
:10220000AA0111430180018804229143A2001143D5
:102210000180018802229143069A520011430180F5
:102220000188012292039143BA031143018001887E
:1022300018229143089AD20011430180018801229B
:1022400011430180F8BD27490A88520852000A80CC
:102250000A88FF2381339A43C00102430A80088819
:10226000012210430880704710B51E4801884908B4
:10227000490001800520000781880122D202914394
:102280008180174841780078FFF7D9FD10BD1548C7
:102290000188490849000180704710B511490023A1
:1022A0000A88D205920F012A01D9040C8C8048803B
:1022B00008888004FCD50120C880012A01D98888BB
:1022C00003044888C01810BD10B50446FFF768FF26
:1022D0002046FFF7E2FF0446FFF769FF204610BDE6
:1022E000105E00200012005008B5002100918142CC
:1022F00001D2491CFAE708BD70B50C460546FFF748
:102300004FFFE8040121C00C49034118B748418040
:1023100001888904FCD50121C1804480028892048F
:10232000FCD5C180FFF743FF70BD7FB500240122BB
:1023300002212346520208460094FFF78AFDAC486A
:10234000FFF7D2FF0023FF2201320221184600943A
:10235000FFF77FFDA748FFF7C7FFA74801250563E3
:10236000032600233602324605211846FFF751FDA9
:1023700008233246012102200095FFF76AFD07235A
:102380003246012103200094FFF763FD0623324605
:10239000042100200094FFF75CFD052300220221A8
:1023A00003200094FFF755FD4B200001FFF79CFF31
:1023B0008E480188A9430180022168460173457354
:1023C00003200023029000941A460121019403A8DF
:1023D000FFF7F4FE894C00212046FFF78DFF884966
:1023E000A01CFFF789FF12212046FFF785FF04217B
:1023F000201DFFF781FF7F4802217E30FFF77CFF21
:102400007E4D00215E3D2846FFF776FF2E1D7D495B
:102410003046FFF771FF7C49281FFFF76DFF7B48AF
:10242000FFF762FF1A212046FFF766FF6420FFF7DF
:102430005BFF1421A01DFFF75FFF6420FFF754FF2F
:1024400006213046FFF758FF00212846FFF754FFCA
:102450006A48A0218438FFF74FFF68486C499238DA
:10246000FFF74AFF654800218E38FFF745FF6348B4
:10247000A91C8C38FFF740FF604800218838FFF71F
:102480003BFF6249932051314001FFF735FF61481E
:1024900001680902090A6207114301605E49D0130D
:1024A00008607FBD38B5002401256D0223462A4609
:1024B000022120460094FFF7CCFC022100236A1081
:1024C00008460094FFF7C5FC00232A46012102209C
:1024D000FFF79FFC00232A4601210320FFF799FC08
:1024E00000232A4604211846FFF793FC00232A46BE
:1024F00002210320FFF78DFC3F48046300232A4696
:1025000005211846FFF785FC38BD10B50446FFF7D6
:1025100047FEE0040121C00C890341183348418083
:1025200001888904FCD50121C180002242800388F2
:102530009B04FCD5C180428002889204FCD5C180F6
:102540004488FFF734FE204610BD2C485C38DCE799
:1025500070B5264C20880125AD03A8432080208833
:10256000FF218131884380302080FFF720FE9326B1
:1025700076012A493046FFF7BFFE204814218E38E5
:10258000FFF7BAFE214930465131FFF7B5FE2088EA
:1025900028432080208880218843490008432080E8
:1025A000FFF7FEFD70BD1E49C00701D11C49503127
:1025B0001C4A142010600D488180282141807047FA
:1025C00010B50A490120C8808C884B88154A50688C
:1025D00004804380001D50601068002804D0002350
:1025E0008B804B80401E106010BD00000012005018
:1025F000C409000094110000C0300050E212000035
:10260000192A00000E04000041100000DC05000043
:10261000D80C00000CE400E000E100E02C0E00000B
:10262000D88C0000145E002070B516460C46054696
:10263000012802D00C2D26D10DE006222149224886
:1026400003F00EF800281ED006221F49304602F083
:1026500065FF062012E01D4D29680878C00610D5D8
:102660002078202803D200202070042070BD0A7E2C
:102670003A31304602F052FF2868007E2070002078
:1026800070BD012070BD32462146284602F0EEFFA3
:1026900070BD70B50E480F49C405228880252A43B5
:1026A00022800D4A53891B0701D4401EFAD20B4ADF
:1026B000012010600622044802F030FF2088A84361
:1026C000208070BD383E030029120800C0060800B3
:1026D000A0860100D47F040020000050008000404C
:1026E00070B50125AD07AC6B2046FEF7E1FACA498B
:1026F00002F02AFE27221201511A00D10121C74AF5
:1027000050601160286B0821884308432863C4483F
:102710000460C4480068002802D0A04200D200BE75
:1027200070BDF0B587B000246A461472BE490A68CD
:10273000002A60D0114640318B7C002B5BD0BB4B14
:10274000012813D0108D1A460007803A0125126F18
:10275000C00EED044019105A6A46800B10711079B2
:10276000002848D01079012804D00FE0AF4840304D
:10277000007B09E008894E256843AD4D1A68401971
:10278000105ACA7C000A801A6A461072107A002811
:102790002AD0A84AA748203A007B956A05E02E2255
:1027A0004243AC18401C4007400F6F463A7A561E11
:1027B0003E72002AF3D1A2785406640E3C713A7935
:1027C000D406E40E3C769A692E235843984B463B38
:1027D000C018105A3A46C006C00F38713879002820
:1027E00002D1107E002806D0087D002803D1C87DC4
:1027F00008221043C87507B0F0BD10B505200007CA
:102800004189890708D041898908890041818A491D
:102810004A88520852004A8001898022114301816E
:10282000018A042291430182818A8907FCD502F042
:1028300023FF012080070169490700D500BE016917
:102840004907FCD510BDF8B57C4EF08800282DD185
:102850000120F0807A490820088005273F07788901
:10286000800720D0B88A400701D5FEF796F8724D50
:102870002888802108432880724CFF206080042033
:102880002080FFF79AF87D21C900E088A288000423
:1028900080188842F9D905202080B088788029885E
:1028A000802081432980684910200860F8BD70B5F8
:1028B000FFF78EF8FFF7A1FF0026604C0520E680A9
:1028C0000007418A8022914341825D48018949087D
:1028D0004900018101F086F9012080078169042205
:1028E0001143816102F0CEFE57491020803101254D
:1028F000086002F0CDFE02F0D1FE1420FEF7E2F8EF
:102900004D4826704089800510D5607800280DD18B
:102910004E4865700088C00708D10120FFF71EFAF5
:102920008B218900884201D90220607070BD10B5EA
:1029300002F0BAFE00F069F840490120087010BDAD
:1029400010B501208007008A000604D500F05DF86C
:102950001420FEF7B7F810BD10B50120FFF7E1FE17
:1029600002F0A8FE10BD10B50124A407208A0007BC
:1029700018D50220FFF7D5FE02F0A2FE2068400025
:1029800040086100084320602068C00FFCD1234844
:10299000803001680906090E01D001210160274934
:1029A0000420087010BD70B52948008886062948A3
:1029B000B60E44681D484030006B0078002802D1F4
:1029C000304602F083FE244800891C4DC00507D51F
:1029D00020060FD5E0070DD0304602F07DFE03E063
:1029E000200607D5E00705D003201C492870088879
:1029F000401C0880200407D5E00505D502201849B1
:102A000028700888401C088070BD10B50B49012053
:102A1000887002F067FE10BD7102000040000040A7
:102A20003C120800381208006C030800E001002086
:102A30004A00080038030800200000503012080047
:102A4000003300500016005000E200E00015005076
:102A50000020005000020040002C0050225E0020A8
:102A60002E5E0020F0B56C4E85B0002570692F46B3
:102A70000290FDF701FF0021684C002802D1207967
:102A8000022800D10291FEF73BF900280ED102F096
:102A90002FFE00280AD061480125C0780028F9D00F
:102AA00005242407A08AC00701D00425B0E002F065
:102AB00021FC0028FAD159480179002901D1316956
:102AC000029157498969002948D0716902910191A1
:102AD000817802A802F012FE002843D04F48817886
:102AE00002A802F001FC00283CD002F00DFE0028F4
:102AF00038D00198029000264A48FEF7D4F8019099
:102B0000494A01208007016A914202D2016AC8291C
:102B1000F9D801208007006AC82800D801263F485C
:102B2000817802A802F0EAFD002819D03B4881789C
:102B300002A802F0D9FB002812D00298002803D086
:102B4000002E01D0401E02903848FEF7ACF8384AFB
:102B5000014612781230022A05D005E00299B6E744
:102B600001F040F854E01130324A5289920500D504
:102B700000BE019A01268A1AB607F36B9B0A9B02D4
:102B80001343F363F26B2C4B80021A400243F2634F
:102B9000F06BC002C00A49050843F063029804259F
:102BA000002801D0001D029002F0E5FA23490968CF
:102BB00002F0D7F902F0FFFA2149009008601749A6
:102BC0000979002900D0012102F0A4FD1D48C06A46
:102BD0008047FEF7C2F8002808D02088302108433B
:102BE000208020880321084320800127306B0004C7
:102BF000C00FFBD014480168C905FCD5002F01D0D7
:102C0000FEF7E6FE02F08CFD2089802188432081BA
:102C1000284605B0F0BD0000A0020020C60608004E
:102C2000A8050800540B0000260200001D0D00003E
:102C30005402080020000050FF03E0FF0C120800BF
:102C4000381208001C0708000002004008B572B6E0
:102C500002F06CFD052109074A8A68460280008857
:102C6000820892006846028002880120C003024365
:102C7000684602800088488208BD10B5FDF784FDD3
:102C8000FD48002101700222427081702522C2702D
:102C900032228280C1800181418181814182C18152
:102CA0000182F64A13681403234313608182FDF7FF
:102CB00095FE01F085FF10BD38B5EF4C2078002857
:102CC0000BD120816081A0816082A0786946087064
:102CD000684602F031FD0220207038BD1CB5E6497F
:102CE00000220A814A818A814A820A820078887099
:102CF000FFF7E2FF0421684601700E2141700321B5
:102D000081700121C170DE4981800022062102F01C
:102D100019FD1CBD38B5D84C2078002816D1E080AC
:102D2000A17868460170E17841706178817002F0A5
:102D30000FFDD44D05E0684602F00AFD002800D0E2
:102D4000FEE7686B0028F6D00120207038BD1CB566
:102D500004460421684601700F21417003218170EF
:102D60000121C170C84981800022062102F0EAFCDD
:102D7000C148217881706178C170A1784170217952
:102D8000E278090211438180FFF7C4FF1CBD38B50A
:102D9000B94C207800281BD1A17868460170252104
:102DA00041706178817002F0D3FCB848016AC213A7
:102DB00011430162016A021491430162016A8214A3
:102DC00091430162016A490A4902016205202070AB
:102DD00038BD1CB504460421684601700E214170BF
:102DE000032181700121C170A54900223031818009
:102DF000062102F0A7FCA04821788170617841701B
:102E0000FFF7C5FF1CBDFEB5A14D02780121A04C06
:102E1000203589024F2A31D09E4B8E10542A39D04A
:102E2000522A2AD1196047789B480078002855D04B
:102E30009A482188314321802188C05D090A09020E
:102E40000143218001209649800388800120288049
:102E500008202880062088490870042168460170EF
:102E60000E214170032181700121C170844900222B
:102E700010398180062102F065FCFEBD0020208013
:102E80002880874B03229A80824A803A1160854AC3
:102E90001160E0E7196047787F480078002811D07A
:102EA0007E482188314321802188C05D090A0902BA
:102EB0000143218001207A498003888004202880F2
:102EC0000220C6E7384602F001FC2088304320800B
:102ED0002088000A000238432080EBE7384602F0E1
:102EE000F5FB2088304320802088000A0002384308
:102EF0002080A7E710B5604C2078012805D0207805
:102F0000022802D02078052807D15E48406B00F0E7
:102F10009DFD5C48343002F021FC0020207010BD83
:102F20001CB50421684601700E2141700321817097
:102F30000121C1705249002240318180062102F0F6
:102F400001FCFFF7D7FF5149002008621CBD1FB5E7
:102F50000421684601700E2141700B21817001210E
:102F6000C17047491031818043490A89C2804A892A
:102F700002818A894281098A818100220E2102F020
:102F8000E1FBFFF7B7FF1FBD7CB50446042168468F
:102F900001700F2141700321817039490125C570ED
:102FA000503181800022062102F0CCFB22780221E0
:102FB0003D48012A04D0022A18D0FDF7E5FB7CBD6C
:102FC0006278002A02D1A278002A0DD005716078BB
:102FD000364919224843A178920151434118344897
:102FE0004161FDF7DEFB7CBD0171FAE70171FDF780
:102FF000E5FB7CBD0521090748807047F7B52D49E1
:10300000CC0520888027384320802B48428912072E
:1030100001D4491EFAD2C18B02221143C18300257B
:1030200050E0264800210160009AAE00B218120458
:10303000920C026141610421016001983018401C2A
:1030400001F023FF01990002895D08431B498A684A
:103050001205120F082AFAD088618868C206FCD5CA
:1030600081072DD5C10401D4800429D52088B84317
:1030700020800020C043FEBD1C5E002000020040F6
:1030800020400000900308001E200000C000004007
:103090000020005080E100E0E058002020000800FF
:1030A000002C005080E200E0C60608000077010016
:1030B000A0020020A08601002000005000800040F7
:1030C0006D1CADB202988542ABD32088B8432080F6
:1030D0000020D0E7F0B50546401C41780278080290
:1030E00029780524104300260127240785B00129EB
:1030F0001ED0FA4BF94AC03B02290AD003290CD052
:10310000042911D0052915D0062919D0072917D06F
:103110003CE017630320000210E06188F04A121AB5
:103120008A4233D3081803E0618881422ED3081AFB
:1031300060802BE00020106301204002186125E030
:10314000687801F009F8411C05D0811C05D0297868
:10315000072904D018E0012616E0022614E080B208
:10316000009001226946DF48FFF748FF002800D0A1
:10317000032610200090DB48012269461438FFF72F
:103180003DFF002800D00326FDF7D8FB0421684648
:1031900001720E21417205218172C77228780028C0
:1031A00011D0062811D007280FD000206946C88109
:1031B0008120C0016946888102A80022082102F00E
:1031C000C1FA05B0F0BD6088F0E76846C681EFE758
:1031D0007CB504460078651C030002F00FF909066F
:1031E0000A11151C202733483800607801F071F966
:1031F0002DE0687829780002084301F054F926E0B0
:10320000607801F03DF922E06878297800020843EF
:1032100001F029F9EDE7607801F052F917E06878DC
:1032200029780002084301F06FF910E068782978E6
:103230000002084301F00AF9A078002802D1607862
:10324000002802D001F071F901E001F055F90421E4
:10325000684601700E214170032181700121C17007
:10326000A14981800022062102F06CFA7CBD6078C1
:10327000EBE710B504460078ACB001280DD0022869
:1032800013D0072106206A46907104206A46107008
:10329000207801280ED00E200DE0A1786078090278
:1032A0000143684601F0ACFC02E0684601F0C6FC50
:1032B0000146EAE70F205070CA1E6846827001225C
:1032C000C270894A183A8280002202F03BFA2CB080
:1032D00010BDFEB50646407800250124002805D023
:1032E0003078012804D002282DD12AE001252AE0D7
:1032F00003273F0210233A46002101200094FEF7E5
:10330000A8FD012111233A4608460094FEF7A1FDCD
:10331000012002F09FFA032002F090FA00221146E9
:103320000120FEF7EDFE71787D26F600304602F0B2
:103330000BF8024611463046FEF701FF02F09CFAF8
:1033400001E002F0A1FA0421684601710E214171E9
:10335000052181716449C4710D390181857201A80B
:103360000022082102F0EEF985E61CB50422694628
:103370000A700E224A7005228A700122CA705A4AC7
:10338000103A8A800078C88000220821684602F03E
:10339000D9F91CBD3EB5044622780020002A01D090
:1033A000032A03D16178072900D90120A1780029D7
:1033B00001D0032903D1E378072B00D90120012A8A
:1033C00003D16378052B00D90120012903D1E378CB
:1033D000052B00D90120022A03D16278092A00D9DD
:1033E0000120022903D1E178092900D90120042212
:1033F00069460A710E224A7105228A710122CA7138
:10340000394A1D320A81488101A80022082102F0B0
:1034100099F900257D20000100950099491C009133
:103420008142FADB00231A46042118460095FEF774
:1034300010FD00231A46052118460095FEF709FDE8
:103440002A482178017061784170A1788170E17813
:10345000C170FDF789FA3EBD30B593B004206946CE
:1034600008700E204870452088700120C8701E48E2
:103470000A24103088808C7102A81DA1054601F035
:10348000FBFC6946CC710AA819A1044601F0F4FCC2
:1034900000220821684602F055F902F047F900229F
:1034A0001021284602F04EF902F040F900221021C6
:1034B00006A802F047F902F039F90022102120464F
:1034C00002F040F902F032F9002210210EA802F0B9
:1034D00039F902F02BF913B030BD0000C0300050B4
:1034E000FFFF00008C7F0000E0400000045E002031
:1034F000765F352E302E332E30000000F8B50E46A4
:103500000121854B89044118DC052088802528434A
:103510002080824847893F0701D45B1EFAD2804B46
:1035200001201860304601F0F9FF2088A843208070
:10353000F8BD70B586B0042269460A700E224A7042
:103540000A228A700122CA70764A8A8002788A71B9
:103550000022CA7102920A730178734D6B460029EA
:103560000ED0714C483402290ED06F4E143E0429FF
:103570000ED0012912D0032919D0052922D028E024
:103580000222D91D284606E00622D91D204602E067
:103590000422D91D3046FFF7B1FF1AE08178427846
:1035A000080210430490012204A928460FE0049267
:1035B0000592411C062204A801F0B0FF022204A9D2
:1035C000204604E010200490012204A93046FFF7B1
:1035D00015FD684600220D2102F0B4F806B070BD5A
:1035E00010B5524CA06902F02FF80020A06110BD68
:1035F000F8B54178027809021143009187780321D8
:10360000BE0035460835284602F0AEF804460420D0
:1036100020700E206070711DA1700120E070414883
:1036200021461030A0800020A071E771F2B208316D
:103630000098FFF763FF3D4920468C613C4A2946CC
:1036400002F080F8F8BD1CB5417802780B021343F4
:103650008478C11C22461846FFF7D0FC0421684636
:1036600001700E214170052181700121C1702D4929
:1036700020318180002181710A46C471082102F045
:1036800061F81CBDFEB50446067804216846017049
:103690000E214170092181700121C1702149303111
:1036A000818086710021C171601C029101F0EDFBE7
:1036B000050220792D0A00060543002E06D0012EB2
:1036C0000ED0022E16D0032E1FD119E028686946AD
:1036D0000872020A4A72020C8A72000EC87214E062
:1036E000601D01F0D2FB0002217A000A090608439E
:1036F00028600AE0288869460872000A487204E0D7
:10370000A079617900020843288000220C216846D4
:1037100002F018F8AFE40000A0860100200000507D
:1037200000800040904000008C7F00001C5E002064
:10373000E13500201649896A084710B5052001F0D7
:1037400011FF14480068002805D0114901224031BA
:10375000097B00F08BF810BD10B520210D4801F059
:1037600007FF0C4802F006F80A480C3002F002F895
:1037700002F006F80849062001F000FF074905207D
:1037800001F0FCFE0649042001F0F8FE10BD000027
:10379000E00100206C030800416002003B3700207C
:1037A000815F0200F7B586B09D48069D0090047BBE
:1037B0004035E87C16468019E8744A700C706889B8
:1037C000888097480F462038039036E00398816A36
:1037D0002E206043081893490A78022A02D00978FB
:1037E00004291ED1904A1188491C11804288D107B2
:1037F00003D08E4B1988491C1980110703D58C4AB8
:103800001188491C11808B4982790B88D218520883
:103810000A80894949880A0A88490B88D2185208BF
:103820000A80E97DC90705D08078400602D4069851
:1038300001F0ACFF641C6407640F3046761EF6B2DC
:103840000028C3D100980473287E00280CD0E87C9F
:10385000002809D003993878896A2E225043081825
:103860008078C00700D1287609B0F0BDF8B50F46C2
:103870000546734940300089C9691646884201D11E
:10388000002102E00002401C81B2022206239002C5
:1038900001F07AFE044601463A462846FFF782FFC9
:1038A000002E02D00020A07003E02146284601F03F
:1038B00073FF204601F07AFEF8BD30B561490A88F1
:1038C000FF2381339A4380320A800C8801221443FB
:1038D0000C800C881825AC4310340C8004884C8074
:1038E0000C88A404FCD5CA8044884C800C88A404AD
:1038F000FCD5CA8084884C800C88A404FCD5CA807E
:10390000C4884C800C88A404FCD5CA8004894C80EF
:103910000C88A404FCD5CA8044894C800C88A4047B
:10392000FCD5CA8084894C800C88A404FCD5CA804C
:10393000C4894C800C88A404FCD5CA80048A4C80BD
:103940000C88A404FCD5CA80448A4C800C88A4044A
:10395000FCD5CA80848A4C800C88A404FCD5CA801B
:10396000C48A4C800C88A404FCD5CA80048B4C808B
:103970000C88A404FCD5CA80448B4C800C88A40419
:10398000FCD5CA80848B4C800C88A404FCD5CA80EA
:10399000C48B4C800C88A404FCD5CA80048C4C8059
:1039A0000C88A404FCD5CA80448C4C800C88A404E8
:1039B000FCD5CA800C889C430C80848CE4B24C807B
:1039C0000C88A404FCD5CA800C889C4380340C80ED
:1039D000194C65884D800D88AD04FCD5CA800D88D2
:1039E000801E9D430D800078488008888004FCD5A7
:1039F000CA800888984380300880208848800888DA
:103A00008004FCD5CA801048808A488008888004D9
:103A1000FCD5CA80088840084000088030BD0000FE
:103A2000380308001C5E0020245E0020265E002073
:103A3000285E00202A5E0020002900502C5E002015
:103A4000E0010020001200500023005007490968DF
:103A5000084710B5002803D00121890601F0A2FE15
:103A6000034841680120884710BD0000A0020020E3
:103A70001C07080030B58549854B4A7E00200C7E26
:103A80009D5C0346AC4205D1521CD2B24A76032A51
:103A900001D301204B7630BD70B57E4E04000ED0B0
:103AA000B078022806D1F078012801D0052801D18C
:103AB00000F0BFF8012C65D1002000F0D1F8B078FB
:103AC00000280CD00025714C012816D002283ED0C9
:103AD00003280BD1FFF7CEFF002853D159E0F0782F
:103AE000012804D0052804D000F0BAF870BD0320E6
:103AF00000E0082000F0BEF870BDF07801280FD07B
:103B00000528F9D16148038CC28B818B408B01F071
:103B10003BFD014610392161C889002814D005E019
:103B200000F0C4F82169C889002803D0103100F0E2
:103B30008AF870BD0889584A904203D0564A3032FC
:103B4000904201D10D8119E0084610301EE0F07856
:103B5000012803D00528ECD1206916E000F054F9C3
:103B600020690189012910D01F290ED021290CD0EC
:103B7000202902D1C189032907D005812069C58187
:103B800000F057F800F008F870BD103001F00EFD9D
:103B9000F8E700F043F870BD3E48002181702038FE
:103BA000C068012103683B483C4AC01C184710B557
:103BB000032001F0FDFD10BD10B5032001F0D2FC83
:103BC000324C606901F0C8FC2068002805D020460E
:103BD00001F0B6FC01F02AFC10BD00213F2001F0ED
:103BE0002BFC10BD2E48C06A004710B52D4903209C
:103BF00001F0C4FC2548C06880688047FFF7CCFF0F
:103C000010BD1346024630B4481E02701F49264AB2
:103C1000C9684C68591CA44630BC60471D48032144
:103C200081702038C068012103681A481B4A08388F
:103C3000184710B5154C2069002803D001F08CFC02
:103C40000020206110BD30B40C46124902228A7057
:103C50002039C968114A0B680146204630BC184714
:103C600010B50A4900224A760876FFF703FFFFF7EE
:103C7000D5FF10BD074901228A702039C968074A5B
:103C80000B6801460348801F1847000080040800A5
:103C9000985C0020A004080030400000993A002001
:103CA000E0010020B93B0020AF3B0020AD48C069D7
:103CB0000047FEB50026AC480196C17E807E0C020E
:103CC0000443A94FA9483D7F211A009584423FD063
:103CD00011DCA748211A84423FD006DCA5482018F1
:103CE00037D0A54940180FD135E0012937D0A34876
:103CF000081809D10EE0A24810293AD0302909D07D
:103D0000402930D0D0293AD03F200190681C9D4EE8
:103D1000C0B2009095481038844269D09348103062
:103D2000844265D09148844262D0904830308442C9
:103D30005ED08E48403084425AD08C498B4B8C48A0
:103D400081225031D201703384421BD1052D46D1DE
:103D50004EE00126DEE71F26DCE72026DAE72126F3
:103D6000FFF7C8F8D6E700780528D3D1FFF7D8F8D1
:103D7000D0E700780228CDD1FFF7E9F8CAE7FFF7CE
:103D80006BFBC7E78C4202D1032D28D130E094426F
:103D90002ED09C422CD075488030844228D0734865
:103DA0009030844224D07148A030844220D06F48A3
:103DB000B03084421CD06D48C030844218D06B486B
:103DC000D030844214D06948DD30844210D0674836
:103DD000A83084420CD06548B330844208D03F22DA
:103DE0003046009B019901F0CFFB1038386109E0A3
:103DF0003F223046009B019901F0C6FB1038386124
:103E000004813869C581FEBD5648006A004710B577
:103E10005548564C016970340A8908461030131B06
:103E2000A24258D025DC584C131BA24241D015DCCD
:103E3000534B202A37D005DC012A0ED01F2A0CD183
:103E4000042031E0212A08D04C4B2C3BD21804D15D
:103E5000C989052901D1FEF77AFF10BD102B1FD0AB
:103E6000402B23D0602B27D0702BF6D1FFF732F9EF
:103E700010BD402B2CD00ADC102B2FD0202B30D0A3
:103E8000302B31D0382BF3D1FFF7F3F910BD432B92
:103E90001BD0502B16D06D2BF8D1FFF77BFA10BD3D
:103EA000FEF71CFF10BD0320187010BDFEF791FF38
:103EB00010BDFEF7A8FF10BDC9890329FBD1FFF78C
:103EC00063F810BDFFF784F910BDFFF702FA10BDCB
:103ED000FFF74BFA10BDFFF72CFB10BDFFF788FB77
:103EE00010BDFFF7B0FB10BDFFF7CCFB10BD1D49A7
:103EF000496A084770B504461B48002143690322FC
:103F000018461D890B300123432D13D004DC242DCA
:103F100009D0422D1BD109E0442D0DD0194E764217
:103F2000AD1914D10CE01349494201E01049491E72
:103F300004220CE00E49FBE70D49491C062206E06D
:103F40000949CA7E8D7E11022943042243710E2540
:103F5000057042708370C170090A0171921C227051
:103F600070BD0000200200208004080020400000F6
:103F70001E200000FDF3FFFFE6EBFFFF0EE0FFFF5A
:103F80001C5E002001FC000010400000FE49484378
:103F9000012102E000BF00BF491C8142FAD97047ED
:103FA000FA49FF2804D8002805D0FF20013002E09C
:103FB000884200D908460521090748800A20E5E71C
:103FC000F8B500277C1E3E460A21009701F0BCF997
:103FD00001228A40D1B2002806D0012806D002284A
:103FE00007D003280AD107E0E94C07E0E84C203469
:103FF00004E0E74C403401E0E54C8034E64DE54810
:104000006861AE612869042210432861EFF31086CD
:10401000012080F31088204600F0F6F9009028690E
:10402000400840002861002E0AD0012080F310884B
:104030000098002802D00146D648471A3846F8BDF5
:104040000020F3E771B583B00398404301F0B6FB5D
:104050000C460546D14AD24B01F07CF9D14E0022E4
:10406000334601F005F801F0CEF80090039801F016
:1040700077F8009900F075FFCB4900F0AFFF009092
:1040800028462146C94ACA4B01F064F9002233464A
:1040900000F0EEFF01F0B7F80190039801F08EFBFD
:1040A000C44AC54B01F056F90022C44B00F0E0FFB2
:1040B00001F0A9F802900199009800F04AFF0299D6
:1040C00000F0F6FEBE4900F0F3FE009001F05AF851
:1040D00004B070BDF8B500256B462E461D80B94C66
:1040E00061602060FFF7AEFF61680F1A69460888BB
:1040F000401C08802068FFF7A5FFC119B248814223
:1041000003DB2268521E01262260814203DC206804
:10411000401C012520602846304206D16846002117
:10412000415E7D2000018142E0DB68460021415E66
:104130007D200001814202DB0020C043F8BD2168E0
:10414000FF2902DCFF20013004E09048814201DCBD
:104150002068F8BD2060F8BDF1B582B08C4D8C4967
:104160008B4C029E03208A4A000220354031803465
:10417000330001F043F926141A20262C32383ED39E
:10418000D3444A50565C62D3D3D3D3686E747A80DA
:10419000868C92989EA4AAB0B6BCC2C8CED3D18851
:1041A0008143FF310131D180B8E011898143FF3172
:1041B00001311181B2E051898143FF3101315181D7
:1041C000ACE091898143FF3101319181A6E0D18931
:1041D0008143FF310131D181A0E0118A8143FF3158
:1041E000013111829AE0518A8143FF3101315182BC
:1041F00094E0918A8143FF31013191828EE0E98818
:104200008143FF310131E98088E029898143FF3111
:104210000131298182E069898143FF31013169815E
:104220007CE0A9898143FF310131A98176E0E989E8
:104230008143FF310131E98170E0298A8143FF31F7
:10424000013129826AE0CA888243FF320132CA8082
:1042500064E00A898243FF3201320A815EE04A89C2
:104260008243FF3201324A8158E08A898243FF3219
:1042700001328A8152E0CA898243FF320132CA8107
:104280004CE00A8A8243FF3201320A8246E04A8ABF
:104290008243FF3201324A8240E08A8A8243FF32FF
:1042A00001328A823AE0CA8A8243FF320132CA82EC
:1042B00034E00A8B8243FF3201320A832EE0E18828
:1042C0008143FF310131E18028E021898143FF31C1
:1042D0000131218122E061898143FF310131618116
:1042E0001CE0A1898143FF310131A18116E0E18900
:1042F0008143FF310131E18110E0218A8143FF31A7
:10430000013121820AE0618A8143FF3101316182FA
:1043100004E0A18A8143FF310131A1822B48FFF7DC
:104320003FFE0298FFF74CFE29490126F6438842DA
:1043300060DD2849254A4118FD327710914254D258
:10434000204C6946A0600020087005252D076946AD
:104350000878401C08706888E060A168FFF7BAFE22
:104360002061411C41D0FFF71BFE6888E060029885
:10437000FFF726FEA06000283CD0694609780A298C
:104380002ED81549401829E0F1060000FF0700006B
:1043900000300050FFFFFF0000E000E0084DF9ADE5
:1043A0002942FA3F0088C34000007A44977E995A18
:1043B0007C930640271186A6913B0D4000002440C7
:1043C000AA21F44A385E002024127A007C040000FE
:1043D00040420F006CEF85FFF0ED85FF2928B6D233
:1043E0000849A0684018A12809D30020FFF7D8FD8C
:1043F0003846FEBD0020FFF7D3FD3046FEBD68887D
:10440000E060FEBD2CEE85FF3EB50D4D6D1E14D057
:1044100002880A42FAD16D1E0FD002880A42FAD0F1
:10442000084A13680124234313606D1E05D00288D7
:104430000A42FAD1044A10683EBD00203EBD000089
:10444000C0C62D0010E000E018E000E010B5044602
:10445000C1B2062000F0C1F8210A072000F0BDF823
:1044600000F0B0F810BD10B50446C1B2002000F055
:10447000B4F8210A012000F0B0F800F0A3F810BD54
:1044800010B50024002803D0401E012181408CB2C9
:10449000E1B2042000F0A1F8210A052000F09DF807
:1044A00000F090F810BD10B50446C1B2022000F033
:1044B00094F8210A032000F090F800F083F810BD72
:1044C000C10710B5C90F082000F087F800F07AF88E
:1044D00010BD10B500F03EF80020FFF7F1FF0020FE
:1044E000FFF7E1FF0020FFF7CBFF0020FFF7BBFF46
:1044F0000020FFF7ABFF10BD10B501460B2000F008
:104500006CF800F05FF810BD10B50446002000F014
:1045100076F8012000F073F87D20C000604300F0C1
:1045200079F8002000F06BF810BD10B500210920CB
:1045300000F053F800F046F80121092000F04DF892
:1045400000F040F80021092000F047F800F03AF8A8
:1045500010BD00002E4900220A8003200002C880FE
:10456000088148818881C8810882488288822849D8
:1045700040390A80C880088148818881C8810882C2
:104580007047234908807047214940390A8800074D
:1045900012091201000F02430A8070471C4A403A78
:1045A00011881023C0079943C00E01431180704742
:1045B000174A403A11882023C0079943800E0143CF
:1045C0001180704700B50020FFF7F2FF0120FFF7D0
:1045D000EFFF0020FFF7ECFF00BD30B505460C46AD
:1045E0000020FFF7DBFF0A4804802846FFF7CCFFD6
:1045F0000120FFF7D3FF0020FFF7D0FF30BD00B54B
:1046000001460A20FFF7E9FFFFF7DCFF00BD0000CD
:104610008030005001010748814200D90146064818
:104620000022026141618261052101610169C903C2
:10463000FCD57047FFFFFF0000E000E0F0B589B057
:10464000016805910C22825E894B54000E211B5F8C
:10465000415E01934368009300239E460369102442
:104660000493E31A9C464369089383690793049B68
:104670000424E31A06930023039384689C4264DDB8
:10468000059B00241C5F9B1C641A00270294059361
:10469000002C00DA6442019B0425DB00E6000024C4
:1046A0009E4202DD2F43FFB2F61A5B106D10641CB0
:1046B000032CF5DB029C3B46002C01DA0824234343
:1046C000069C23416446A340744623439BB29E4606
:1046D0006346082B0DDA73461C0A009B1C70009B76
:1046E0005B1C0093634608339C4673461B061B0CF9
:1046F0009E46049C63461B1B9C46089B019D1F40D5
:10470000079B6D101F43019BFCB263435B19029D25
:104710009B10002D00DA5B425918564B994202DC7F
:10472000DB43994200DA1946514B103B1B579A184C
:1047300001D5002202E0582A00DD58224C4B5400DB
:104740001B5F0193039B5B1C96E773461C0A009B4F
:104750001C708281C18109B0F0BDF0B51222825E69
:10476000002305684468C1681FE00027EF5FAD1CA7
:10477000BE1A3A46360410277618C75F09147943E3
:104780004900711A1626865F0F147743FF133FB254
:10479000BC461827C75FF619364FBE4200DD3E46BD
:1047A000C68266462680A41C5B1C86689E42DCDCB2
:1047B0004282C160F0BD0021002801DAC04300E060
:1047C0008021001120280BDBFF2801DD0011403182
:1047D000402801DB80102031202801DB40101031FF
:1047E000081855214840C0B27047FFB58C46964620
:1047F000002638E000273C461D4D6000B235295E9A
:104800001A5E45195143CF190221695EC51802226B
:10481000AA5EA41C5143CF19A9881952E888688060
:10482000232CE9DB61460020085E194640310881EF
:10483000624654884C81121DEB219446C943414382
:10484000D522D243C91950434018C013510C884295
:1048500002DCC943884200DA084671460880704687
:10486000801C8646B61C00988642C3DBFFBD000054
:10487000AC5C0020FF7F0000704770B50125044646
:104880006D0200232A4601210220FDF7C2FA00230F
:104890002A4601210320FDF7BCFA00232A46042101
:1048A0001846FDF7B6FA00232A4602210320FDF739
:1048B000B0FA00232A4605211846FDF7AAFA6E1021
:1048C000002C09D02A46022100230846FDF7A1FA50
:1048D000002C03D0324602E03246F4E72A46002399
:1048E00002211846FDF795FA70BDAC49002204205C
:1048F0008A6108610F204861282088608A81CA8106
:10490000143148637047A54930B400202C39C86180
:10491000486208628862A2490246542358545631BC
:10492000521C0A2AF9DB9D496424143128238C6324
:104930000A464B630832086393609A4B1382508295
:104940001023D060138319239382C8624C6288625B
:1049500014398881C88130BCC7E7904856232C3869
:10496000416A002259438E4BC91840310A75416A89
:10497000491C41620A2900DB4262816A491E816248
:104980007047F8B5854F06462C3F3C46403447E01B
:10499000786A56214843824D54214019095C012907
:1049A00033D1814949680A2906DD001DA060E06015
:1049B0007A481C30FFF7D1FE7B484168192904DA98
:1049C000491C4160FFF7C9FF2AE0962901DA491C1A
:1049D0004160786A56214843216B40194900EF2213
:1049E000001D491992008A18282300210588158086
:1049F000801C921C491C2829F8DB206BC0182063FE
:104A0000A06BC01AA063FFF7A8FF616B206B884200
:104A100006DB6248503000F0DDF8606B00F0A1F872
:104A2000761EB5D2F8BD70B55F4D5D490D22A878F0
:104A300092018C1801280DD9E0695623584340187B
:104A4000012240300275E069401CE0610A2801D172
:104A50000020E061E069562242435118534A116038
:104A6000FDF7A1FDA06A401CA062A878022801D22F
:104A7000401CA87070BD70B54B4C00256570207847
:104A8000002831D1FBF7B2FE002801D0FBF7DDFE94
:104A9000FDF74BFCFFF737FF012000F0DBFE0020A5
:104AA00000F0CCFEFDF755FB012200211046FDF77A
:104AB00027FB3F497D200A46C000FDF740FB3D48EB
:104AC00000F0D4FEFDF744FD00F0D6FE01263A4981
:104AD00030020A680242FCD0374980310860FDF795
:104AE00033FBA5702670656070BD38B500F0CCFE54
:104AF0002D4D2878002801D0FBF785FE00242C706E
:104B000001256D0223462A46022120460094FDF726
:104B1000A0F9022100236A1008460094FDF799F9D4
:104B200000232A4601210220FDF773F900232A46BB
:104B300001210320FDF76DF900232A4604211846C0
:104B4000FDF767F900232A4602210320FDF761F9EA
:104B50001A48046300232A4605211846FDF759F92F
:104B600038BD0E4910B514310A6B121A0A638A6BEC
:104B700012188A630A4A40008018EF2292008318B4
:104B800007488218002004E01C8814809B1C921C9B
:104B9000401C0C6B8442F7DC10BD00006C23080045
:104BA00000200800510900004C5E0020185E002023
:104BB0001F4E0000274A002000E200E0C0300050F5
:104BC00010B52849322000F0FFFD0121322000F00D
:104BD00033FC10BD70B5054615233F223221224813
:104BE00000F0D2FC0446002020702049601C0D60BB
:104BF00048600846FFF722FD204600F0D7FC70BD54
:104C000070B504460D46322000F0F2FB002812D0A9
:104C10000220A07115482821816000218181C18175
:104C2000322102233F22880200F0AEFC058000F012
:104C3000BDFC072070BD0120A071FAE710B5044645
:104C4000322000F0D5FB012809D00120A0710648D0
:104C50003F223221401C00F0BDFD0B2010BD022080
:104C6000A071FAE7AC5D002001C800006C230800C9
:104C700010B50C460021322000F0DEFB21883F48B1
:104C80000029418009D0002101700021416081602C
:104C9000C160FFF7F0FE002010BD0121F4E710B560
:104CA000FFF723FF0121322000F0C6FB002010BDDA
:104CB000F8B5324C0E463248E16814224018711C97
:104CC00000F02CFCE0681430E060A168401AA028D5
:104CD00052D12B480427AB3807700F214170A8210F
:104CE00081700121C17027490171090A417126486B
:104CF000016860680D46491C009000F0D0F80098EB
:104D0000401C60603078002805D0012805D00228BA
:104D100005D0022004E0032002E02F7001E005200E
:104D200028701748A168A0224118681D00F0F6FB02
:104D300013480022AB21AB3800F004FD00F0F6FC74
:104D40002078002500280BD161886068884207D14F
:104D5000FFF7CBFE0121322000F06EFB2846F8BDA4
:104D6000FF21E0684131884200D1E560A068A030B1
:104D7000A060884200D1A5600020F8BD4012080064
:104D80002F250800C8400000545E00207CB5324D3D
:104D9000002428782646012806D13048406B002898
:104DA00002D12E70FDF7B6FF2D4801882D4A1288DA
:104DB000914214D32978012911D106800421684633
:104DC00001700E214170032181700121C1702649BB
:104DD00081800022062100F0B5FCFEF78BF800F080
:104DE00095FA224D2888012809D100F0C5FA2049FA
:104DF0000880012000F0C6FA00F0CAFA2E80FBF706
:104E0000F5FC01001B480AD001684A1E0260002917
:104E100003DD01240820FFF7B4FD20467CBD0124FA
:104E200064210160F6E710B500240820FFF7A9FD12
:104E3000204610BD032809D105200007418A8022A1
:104E400091434182418A042291434182704710B5C7
:104E5000FBF79AFC10BD00001C5E002090030800C8
:104E6000225E0020205E002040400000305E0020D6
:104E700078040800585E002003460A780270491C36
:104E8000401C002AF9D118467047001D0321401E1E
:104E9000037812021A43491EF9D51046704703469B
:104EA00003220870491C000A521EFAD518467047A2
:104EB000F8B502464A40D40F42004B0052085B0846
:104EC0009A4202D20246084611464A0023D0C30D38
:104ED0004A00DDB2120EAD1A202D35DA4902012644
:104EE000490AF6058A19002C00D0524220214F1B96
:104EF0001146B9402A411018C20D9A4221D0002C07
:104F000017D0012D08DCDA05801AD20F8019D207DC
:104F1000DBB200F09CF9F8BDDA05801A01234000ED
:104F20001B06C01880185A428018CA0F1043490047
:104F300007E04908C2071143DA05801A80194008C2
:104F4000801800F07CF9F8BD61000122511A001BA5
:104F5000F7E70122D2075140AAE70122D2075040C9
:104F6000A6E7024670B54A40D30FDB0740002DD0BC
:104F70004A002AD0010E140E091900021202400A3A
:104F8000520A8418E50104465443000A120A2E040A
:104F90005043A4194219200CC543AA18120C01252C
:104FA0007F39521CAD0352191204240400D0521C44
:104FB000104301D44000491EC2B20C06C00920189B
:104FC000401C4008802A02D003E0002070BD400849
:104FD0004000002900DA0020184370BD70B5024679
:104FE0004A40D50F40004A00ED074008520800280B
:104FF00014D0002A12D0C40DD30D41020120C005E7
:105000005202490A520AE41A091812187D349142D0
:1050100001D3641C00E04900002C01DA002070BDBF
:105020000023914201D3891A034340084900002814
:10503000F7D100290AD0914202D10121C90705E028
:10504000914201D2012101E00121C943E005C018CC
:10505000401900F0F4F870BD420005D04200120E75
:1050600052428A4201DB00207047C9050818704788
:10507000F0B50C465C4085B0E40FE40703944C00A7
:1050800000266408590094464908024602962243C5
:1050900021D062460A431ED06200570D4A000E031B
:1050A0002303550D012402462C492405781B1B0BB4
:1050B000360B401823432643614600901C46501A85
:1050C000B44103D30098401C009002E0921800986D
:1050D0005B41002803DA0020014605B0F0BD002046
:1050E000012109050746864611E064461D46141B4A
:1050F000B54106D36546521BB341744607430C4382
:10510000A646CD0740084908284392185B4105464A
:105110000D43EAD11046184313D06046194650405B
:105120007140084303D100220123DB0709E06046F8
:10513000101AB34102D20122002302E00122D2431D
:105140005310009874460105381C6141029C039D70
:105150000019694100F044FBBFE70000FD030000B7
:10516000C217C10F504010B54018CA07962300213E
:1051700000F06DF810BD10B500229623114600F026
:1051800066F810BDC20F410040020123400ADB0552
:10519000D207090EC0187F2901DA0020704796292E
:1051A00003DC9623591AC84001E096398840002A4A
:1051B000F4D040427047410040020122400AD2052B
:1051C000090E80187F2901DA00207047962903DC38
:1051D0009622511AC8407047963988407047C20FCE
:1051E000D207400040080BD0C10D0723DB01C918CE
:1051F00040020905400A1143C208400711437047A5
:10520000002001467047CB0FDB07490010B5490865
:1052100002460A4307D00A0D07240903E401090BDB
:10522000121B002A01DC002010BDC900440F0C43F2
:10523000C100E018D205801800F001F810BD002967
:1052400004DA401C490001D140084000704770B4A6
:105250000024050C05D11024000402D1002922D01D
:105260001124050E01D108340002050F01D1241DBF
:105270000001850F01D1A41C8000002801DB641C03
:105280004000002908D020252E1B0D46F540A140E6
:1052900000D00121294308431B1B0106DB1D000A26
:1052A000002B02DA002070BC7047DB05181880184C
:1052B0000029F8DA401C4900F5D170BC40084000D4
:1052C00070470000064C0125064E05E02046E368C5
:1052D00007C82B4398471034B442F7D3FBF7B4F810
:1052E000E45D0020045E002003B40148019001BD8C
:1052F0002B69020003B40148019001BDC12D0300D8
:1053000003B40148019001BD0921030003B4014821
:10531000019001BDC92D030003B40148019001BDF6
:10532000EB31030003B40148019001BD3D3203009D
:1053300003B40148019001BDD721030003B4014823
:10534000019001BD5D80020003B40148019001BDE0
:10535000A73A030003B40148019001BD913B03004B
:1053600003B40148019001BD2F2F030003B401488D
:10537000019001BD998F020003B40148019001BD65
:10538000938F020003B40148019001BDCD8C02004F
:1053900003B40148019001BD418F020003B40148EC
:1053A000019001BDB780020003B40148019001BD26
:1053B000551B020003B40148019001BDCF2B03002F
:1053C00003B40148019001BD0F3B030003B4014841
:1053D000019001BDCB2C030003B40148019001BD35
:1053E0000990020003B40148019001BD831D020031
:1053F00003B40148019001BDB326030003B4014882
:10540000019001BDFD3D030003B40148019001BDC1
:10541000197D020003B40148019001BD052202007C
:1054200003B40148019001BD2F22020003B40148DA
:10543000019001BD0B91020003B40148019001BD30
:105440003126030003B40148019001BDA5280300E3
:1054500003B40148019001BDD5AF020003B4014877
:10546000019001BDA1A5020003B40148019001BD56
:10547000E3A5020003B40148019001BD87A8020022
:1054800003B40148019001BDA7A9020003B401487B
:10549000019001BD93AA020003B40148019001BD2F
:1054A00095AB020003B40148019001BDF9AB0200C5
:1054B00003B40148019001BD69AC020003B4014886
:1054C000019001BD17AD020003B40148019001BD78
:1054D00077AD020003B40148019001BDF1AD0200B7
:1054E00003B40148019001BD85AE020003B4014838
:1054F000019001BD11AF020003B40148019001BD4C
:105500003350020003B40148019001BD5548020028
:1055100003B40148019001BD1F50020003B40148CB
:10552000019001BD213B030003B40148019001BD7E
:105530007F0C030003B40148019001BDAB0C0300D4
:1055400003B40148019001BDBF22020003B4014829
:10555000019001BDEB26030003B40148019001BD99
:105560003524030003B40148019001BDDD20030090
:1055700003B40148019001BD533B030003B401484B
:10558000019001BD9D20030003B40148019001BDBD
:10559000B123030003B40148019001BD49E50200B5
:1055A00003B40148019001BDF9E3020003B40148CE
:1055B000019001BDE123030003B40148019001BD46
:1055C0004BCD020003B40148019001BD99D1020006
:1055D00003B40148019001BDABD0020003B40148FF
:1055E000019001BD69D0020003B40148019001BDE2
:1055F00077CF020003B40148019001BD01CC020045
:1056000003B40148019001BD29CC020003B4014854
:10561000019001BD15D2020003B40148019001BD03
:105620008DD2020003B40148019001BDB9380200D7
:1056300003B40148019001BDBB7F020003B40148DF
:10564000019001BD7758020003B40148019001BDEB
:10565000D722030003B40148019001BD2D4202008E
:1056600003B40148019001BD773B030003B4014836
:10567000019001BDD729030003B40148019001BD89
:10568000652C030003B40148019001BDDB2E03002B
:1056900003B40148019001BD231D020003B4014879
:1056A000019001BDC32C030003B40148019001BD6A
:1056B0001531030003B40148019001BD3B660200AF
:1056C00003B40148019001BD2B66020003B40148F8
:1056D000019001BD038D020003B40148019001BD9A
:1056E000CF8F020003B40148019001BD1B66020088
:1056F00003B40148019001BD7920030003B40148BF
:10570000019001BD2129030003B40148019001BDAE
:10571000D990020003B40148019001BDC76802009E
:1057200003B40148019001BD0D2C030003B40148EE
:10573000019001BDF580020003B40148019001BD54
:105740007B6F020003B40148019001BD2F8102006C
:1057500003B40148019001BDAF6E020003B40148DB
:10576000019001BD655F020003B40148019001BDD5
:105770001522030003B40148019001BD2522020057
:1057800003B40148019001BD5B66020003B4014807
:10579000019001BD5D61020003B40148019001BDAB
:1057A0000D53020003B40148019001BD776202006D
:1057B00003B40148019001BDB120030003B40148C6
:1057C000019001BD613C030003B40148019001BD9B
:1057D0008725030003B40148019001BD0D24030097
:1057E00003B40148019001BDCD3C0300F8B5040CA1
:1057F0008BB2264682B25E430D0C1046370C5843DE
:10580000360480190021794116466E43370C360460
:105810008019794126466E438919F8BD02E008C80F
:10582000121F08C1002AFAD170477047002001E01A
:1058300001C1121F002AFBD17047000004490A6809
:10584000800792089200800F02430A6070470000B0
:105850000400005004490A680823C0079A43000F57
:1058600002430A60704700000400005001490860CC
:10587000704700000C5E00200248016801221143BD
:10588000016070470034005002480168490849002F
:10589000016070470034005004490A68C00752088C
:1058A0005200C00F02430A607047000010340050DD
:1058B00004490A680423C0079A43400F02430A6060
:1058C000704700001034005004490A680223C007E2
:1058D0009A43800F02430A60704700001034005062
:1058E0000101000A04280A040203AA0055032A0041
:1058F000A001FFFF2C0100000A00000085750200D6
:105900000B0000006B7A02000C000000CB79020053
:105910000D000000A17502000E000000D37502000A
:105920000F000000F379020010000000FD75020076
:105930001200000017760200110000005D760200E0
:10594000130000008776020014000000B176020008
:1059500015000000D7780200160000000979020047
:105960001B000000F77602004D000000577902008E
:1059700017000000217A02001800000013780200CE
:1059800019000000537802001A0000009578020008
:105990001C0000008D7A02001D000000AD7A02009C
:1059A0001E000000437A02001F000000737702000F
:1059B00020000000C377020021000000F37A0200FB
:1059C00049000000317B020000080000010F0020A8
:1059D000010000003B7B020009000000537B020035
:1059E000050000007D7B020006000000A77B02008E
:1059F000020000000B7C020007000000CF7B0200C9
:105A000000000000F97B0200030000006B7C020034
:105A1000040000008D7C020008000000F77C0200FA
:105A20004C0000006D7E0200F858002026000000A7
:105A300054430300285A00203204080006000100E5
:105A400000000000885A0020A404080002000100A1
:105A50000D100020F1100020531500201116002019
:105A600035160020D914002000000000A1120020EB
:105A7000FFFF00009F0F002002FC00007D9202004B
:105A800003FC000089920200705A0020030000000D
:105A900005040000491800200604000093390200A4
:105AA00007040000D9390200080400001F3A020070
:105AB00002040000B73B020000040000093C0200A1
:105AC000040400006F3C020003040000D93C020003
:105AD000010400004B3D020009040000D73A020017
:105AE0000A040000413B02000B0400004D3F02008D
:105AF000210400009942020026040000EB47020046
:105B000000080000EF3F02003F000000CF4102000C
:105B10004B000000C93D02004E000000213E020083
:105B2000230400007F3E020024040000B93E02006E
:105B3000270400009B43020028040000C543020024
:105B4000250400003D4302002B040000F143020045
:105B500031040000114402003204000059440200E4
:105B6000350400008D44020029040000671800205D
:105B70002A040000271900202C0400006D450200B3
:105B80002D040000F74502002E0400002B46020001
:105B90002F04000063460200330400009346020015
:105BA0003404000015470200360400004547020097
:105BB0003004000097470200010800002D42020057
:105BC00001080000BD18002000080000EF3F02009F
:105BD00000000000000000000000000000000000C5
:105BE00000000000000000000000000000000000B5
